:100000000C942A000C943C000C943C000C943C0092
:100010000C943C000C943C000C943C000C943C0070
:100020000C943C000C943C000C9466000C943C0036
:100030000C943C000C943C000C943C000C943C0050
:100040000C943C000C943C000C943C000C943C0040
:100050000C943C0011241FBECFE5D8E0DEBFCDBF1D
:1000600010E0A0E6B0E001C01D92A336B107E1F7B1
:100070000E945F000C948B000C9400008AB38ABB32
:100080001BBA00008FEF84BB15BA0000BB9A18BAE8
:1000900080E593EC0197F1F783B7886083BF83B75E
:1000A000806183BF83B7856083BF84EF8CBF789402
:1000B00089B7826089BF88B7826088BF089510922F
:1000C0006100109260000E943E00FFCF1F920F92CD
:1000D0000FB60F9211248F939F938091600090919F
:1000E00061000196909361008093600080916000B0
:1000F00090916100059740F085B391E0892785BB19
:1001000010926100109260009F918F910F900FBE2E
:0A0110000F901F901895F894FFCF90
:00000001FF
