S0170000636F64655F4750494F5F696E7075742E7372656355
S11300000C942A000C9434000C9434000C943400A6
S11300100C9434000C9434000C9434000C9434008C
S11300200C9434000C9434000C9434000C9434007C
S11300300C9434000C9434000C9434000C9434006C
S11300400C9434000C9434000C9434000C9434005C
S11300500C94340011241FBECFE5D8E0DEBFCDBF21
S11300600E9441000C9453000C94000084B38F77D9
S113007084BB80E885BB87B3836087BB88B318BA29
S113008008950E9436009F99FECF98B383E0892794
S113009088BB2FEB84ED91E0215080409040E1F744
S10D00A000C00000F0CFF894FFCF79
S9030000FC
