:100000000C942A000C9434000C9434000C943400AA
:100010000C9434000C9434000C9434000C94340090
:100020000C9434000C9434000C9434000C94340080
:100030000C9434000C9434000C9434000C94340070
:100040000C9434000C9434000C9434000C94340060
:100050000C94340011241FBECFE5D8E0DEBFCDBF25
:100060000E943F000C9451000C940000A79880E877
:1000700085BB87B3836087BB88B318BA08950E9495
:10008000360093E09F99FECF88B3892788BB2FEB7A
:1000900034ED81E0215030408040E1F700C00000A5
:0600A000F1CFF894FFCF40
:00000001FF
