:100000000C942A000C9447000C9447000C94470071
:100010000C9447000C9447000C9447000C94470044
:100020000C9447000C9447000C9447000C94470034
:100030000C9447000C9447000C9447000C94470024
:100040000C9447000C9447000C9447000C94470014
:100050000C94470011241FBECFE5D8E0DEBFCDBF12
:1000600010E0A0E6B0E0E8E0F2E002C005900D92FA
:10007000A036B107D9F720E0A0E6B0E001C01D929C
:10008000AC37B207E1F70E9492000C9402010C9485
:10009000000014BA87B18F7D87B987B1806487B9B2
:1000A00086B1836086B986B1806886B987B1807E63
:1000B00087B987B1816087B9089586B1806486B9B0
:1000C0003699FECF24B185B190E0982F8827822BF6
:1000D0009093630080936200089520B52F7720BD30
:1000E00090BD89B986EA80BD88E08AB908955D9B94
:1000F000FECF8CB92FE986E891E0215080409040F6
:10010000E1F700C000000895CF93DF93EC0104C035
:10011000219690E00E94770088818111F9CFDF91CC
:10012000CF91089589E190E00E946D000E944900FE
:1001300088E490E00E94770085E490E00E947700D8
:100140008CE490E00E9477008CE490E00E947700BD
:1001500081E490E00E9477008091620090916300BA
:100160004AE064E670E00E94CD0084E690E00E94E0
:1001700084008AE090E00E9477008DE090E00E9489
:1001800077000E945D00809160009091610001966F
:100190009093610080936000CBCFBB274A3031F44D
:1001A000992322F4BDE2909581959F4F0C94D9003C
:1001B000BB27FB015527AA27880F991FAA1FA41741
:1001C00010F0A41B83955051B9F7A05DAA3308F035
:1001D000A95DA193009779F7B111B1931192CB0169
:1001E0000C94F200DC01FC01672F71917723E1F799
:1001F000329704C07C916D9370836291AE17BF07F4
:08020000C8F30895F894FFCF44
:00000001FF
