S0140000436F6D70746575725F6578312E7372656354
S11300000C942A000C9434000C9434000C943400A6
S11300100C9434000C9434000C9434000C9434008C
S11300200C9434000C9434000C9434000C9434007C
S11300300C9434000C9434000C9434000C9434006C
S11300400C9434000C9434000C9434000C9434005C
S11300500C94340011241FBECFE5D8E0DEBFCDBF21
S11300600E9449000C946E000C94000087B38160D8
S113007087BB18BA08958FB580648FBD8EB588602C
S11300808EBD8EB583608EBD82E19AE79BBD8ABD2D
S113009008950E9436000E943B008CB59DB562E82D
S11300A07EE10E945A00892BC1F798B381E0892729
S11300B088BBF3CFAA1BBB1B51E107C0AA1FBB1F00
S11300C0A617B70710F0A61BB70B881F991F5A95E0
S11300D0A9F780959095BC01CD010895F894FFCFC0
S9030000FC
