S0140000436F6D70746575725F6578312E7372656354
S11300000C942A000C9434000C9434000C943400A6
S11300100C9434000C9434000C9434000C9434008C
S11300200C9434000C9434000C9434000C9434007C
S11300300C9434000C9434000C9434000C9434006C
S11300400C9434000C9434000C9434000C9434005C
S11300500C94340011241FBECFE5D8E0DEBFCDBF21
S11300600E944C000C945A000C94000084B38160EC
S113007084BB15BA089581B3806281BB8FB5806457
S11300808FBD8EB588608EBD8EB583608EBD80E1D8
S11300909AE79BBD8ABD08950E9436000E943B00EA
S11300A08CB59DB589309D4318F081E085BBF8CFB0
S10B00B015BAF6CFF894FFCF56
S9030000FC
