S01000004750494F5F6578322E7372656377
S11300000C942A000C943F000C943F000C943F0085
S11300100C943F000C943F000C943F000C943F0060
S11300200C943F000C943F000C943F000C943F0050
S11300300C943F000C943F000C943F000C943F0040
S11300400C943F000C943F000C943F000C943F0030
S11300500C943F0011241FBECFE5D8E0DEBFCDBF16
S113006010E0A0E6B0E0E2ECF2E002C005900D92F0
S1130070A436B107D9F70E9450000C945F010C9488
S1130080000081E090E00E94F10087B38C6087BBA0
S113009088B318BA84B38F7784BB80E885BB08958E
S11300A00E9441000E94EC0069E070E00E94780028
S11300B08E5F9F9B11C018C048B39CE0942798BBE7
S11300C04FE956E891E0415050409040E1F700C0BC
S11300D000002F5F3F4F02C020E030E0482F50E087
S11300E0241735074CF3DECF88B3837F88BBDACF80
S11300F097FB072E16F4009407D077FD09D00E94D1
S11301008C0007FC05D03EF4909581959F4F08958F
S1130110709561957F4F0895AA1BBB1B51E107C0E1
S1130120AA1FBB1FA617B70710F0A61BB70B881F83
S1130130991F5A95A9F780959095BC01CD01089512
S11301408F929F92AF92BF92CF92DF92EF92FF92E3
S1130150CF93DF93EC01688179818A819B8161155A
S113016071058105910521F464E279ED8BE597E051
S11301702DE133EF41E050E00E94FC0049015A01B7
S11301809B01AC01A7EAB1E40E941B016B017C0155
S1130190ACEEB4EFA50194010E942901DC01CB016E
S11301A08C0D9D1DAE1DBF1DB7FF03C00197A10996
S11301B0B04888839983AA83BB839F77DF91CF91CB
S11301C0FF90EF90DF90CF90BF90AF909F908F9073
S11301D008950E94A000089580E690E00E94A00087
S11301E00895A0E0B0E08093600090936100A09334
S11301F06200B09363000895052E97FB1EF40094EB
S11302000E94130157FD07D00E942E0107FC03D062
S11302104EF40C94130150954095309521953F4F21
S11302204F4F5F4F089590958095709561957F4FDE
S11302308F4F9F4F08950E945001A59F900DB49F2A
S1130240900DA49F800D911D11240895B7FF0C9467
S11302501B010E941B01821B930B0895A1E21A2E1D
S1130260AA1BBB1BFD010DC0AA1FBB1FEE1FFF1F56
S1130270A217B307E407F50720F0A21BB30BE40BA6
S1130280F50B661F771F881F991F1A9469F76095ED
S11302907095809590959B01AC01BD01CF010895A7
S11302A0A29FB001B39FC001A39F700D811D1124B3
S11302B0911DB29F700D811D1124911D0895F89414
S10502C0FFCF6A
S10702C20100000033
S9030000FC
