S0180000636F64655F55534152545F74785F72782E73726563EF
S11300000C942A000C9434000C9434000C943400A6
S11300100C9434000C9434000C9434000C9434008C
S11300200C9434000C9434000C9434000C9434007C
S11300300C9434000C9434000C9434000C9434006C
S11300400C9434000C9434000C9434000C9434005C
S11300500C94340011241FBECFE5D8E0DEBFCDBF21
S11300600E9448000C9478000C94000028E12AB9FE
S113007020B52F7720BD90BD89B986EA80BD08954B
S11300805D9BFECF8CB908955F9BFECF8CB1089524
S113009089E190E00E943600C1E4C93729F587E47C
S11300A090E00E9440008FE490E00E94400084E5CC
S11300B090E00E9440008AE390E00E9440008C2F70
S11300C090E00E9440008AE090E00E9440008DE0B1
S11300D090E00E9440002FE986E891E021508040A2
S11300E09040E1F700C000000E944400C82FD5CF23
S10700F0F894FFCFAE
S9030000FC
