:100000000C942A000C9434000C9434000C943400AA
:100010000C9434000C9434000C9434000C94340090
:100020000C9434000C9434000C9434000C94340080
:100030000C9434000C9434000C9434000C94340070
:100040000C9434000C9434000C9434000C94340060
:100050000C94340011241FBECFE5D8E0DEBFCDBF25
:100060000E9444000C947B000C94000028E02AB904
:1000700020B52F7720BD90BD89B986EA80BD08954F
:100080005D9BFECF8CB9089589E190E00E94360017
:10009000C0E0D0E002C0C0E0D0E086E590E00E9481
:1000A000400081E490E00E9440008CE490E00E94D7
:1000B000400085E590E00E94400085E490E00E94C9
:1000C0004000CE01C0960E9440008AE090E00E946D
:1000D00040008DE090E00E9440002FE986E891E02A
:1000E000215080409040E1F700C000002196CB30C5
:0A00F000D10588F6D2CFF894FFCFB7
:00000001FF
