:100000000C942A000C9434000C9434000C943400AA
:100010000C9434000C9434000C9434000C94340090
:100020000C9434000C9434000C9434000C94340080
:100030000C9434000C9434000C9434000C94340070
:100040000C9434000C9434000C9434000C94340060
:100050000C94340011241FBECFE5D8E0DEBFCDBF25
:100060000E9436000C9452000C94000087B38C6000
:1000700087BB84E088BB88E893E129E130E0F9019F
:100080003197F1F70197D9F74CE029E130E088B3D7
:10009000842788BB80E197E2F9013197F1F7019756
:0800A000D9F7F5CFF894FFCF6A
:00000001FF
