S01E0000436F6D70746575725F6578315F6374635F62617369632E7372656350
S11300000C942A000C9434000C9434000C943400A6
S11300100C9434000C9434000C9434000C9434008C
S11300200C9434000C9434000C9434000C9434007C
S11300300C9434000C9434000C9434000C9434006C
S11300400C9434000C9434000C9434000C9434005C
S11300500C94340011241FBECFE5D8E0DEBFCDBF21
S11300600E9448000C944D000C94000081B38062FF
S113007081BB08958FB580648FBD8EB588608EBDB9
S11300808EB583608EBD89E09DE39BBD8ABD0895D6
S11100900E9436000E943A00FFCFF894FFCF82
S9030000FC
