:100000000C942A000C9434000C9434000C943400AA
:100010000C9434000C9434000C9434000C94340090
:100020000C9434000C9434000C9434000C94340080
:100030000C9434000C9434000C9434000C94340070
:100040000C9434000C9434000C9434000C94340060
:100050000C94340011241FBECFE5D8E0DEBFCDBF25
:100060000E9441000C9451000C94000087B3816001
:1000700087BB18BA08951FBC1EBC8EB583608EBDA9
:1000800008950E9436000E943B008CB59DB58130DA
:10009000904828F098B381E0892788BBF6CF18BA3A
:0600A000F4CFF894FFCF3D
:00000001FF
