S011000055534152545F7478342E7372656305
S11300000C942A000C9447000C9447000C9447006D
S11300100C9447000C9447000C9447000C94470040
S11300200C9447000C9447000C9447000C94470030
S11300300C9447000C94A3000C9447000C944700C4
S11300400C9447000C9447000C9447000C94470010
S11300500C94470011241FBECFE5D8E0DEBFCDBF0E
S113006010E0A0E6B0E0E0EAF1E002C005900D92F5
S1130070A036B107D9F720E0A0E6B0E001C01D9298
S1130080A636B207E1F70E9464000C94CE000C94EB
S1130090000020B52F7720BD90BD89B986EA80BDC8
S11300A088E18AB98AB180688AB9789408955D9B99
S11300B0FECF8CB92FE986E891E021508040904032
S11300C0E1F700C00000089589E190E00E94490032
S11300D0C0E0D0E000E010E002C000E010E088E4FE
S11300E090E00E94570085E490E00E9457008CE461
S11300F090E00E9457008CE490E00E94570081E455
S113010090E00E945700FE01EE59FF4F808190E07D
S11301100E9457008AE090E00E9457008DE090E032
S11301200E9457000F5F1F4FCE0101968370907895
S1130130992324F401978C6F9F6F0196EC010A3088
S1130140110558F6CCCF1F920F920FB60F921124BF
S11301508F939F93EF93FF93E0916000F091610080
S11301608CB1EE59FF4F80838091600090916100C3
S1130170019683709078992324F401978C6F9F6F74
S113018001969093610080936000FF91EF919F919D
S11301908F910F900FBE0F901F901895F894FFCF7A
S9030000FC
